:020000040800F2
:10000000F00A0020890100086B0F0008DB0E0008D1
:10001000690F000869050008971800080000000033
:100020000000000000000000000000005D13000858
:10003000F306000800000000831000088113000888
:10004000991800088110000883130008571300084E
:10005000C5080008C1120008F506000825070008B9
:1000600027070008290700082B070008B505000826
:10007000B7050008B9050008BB050008BD05000864
:10008000BF050008C10500086704000893180008B0
:10009000951800086B0500086D0500082D0700087D
:1000A000851300088B1300088913000887130008C4
:1000B0008D130008FD140008FF140008DF0E00086F
:1000C000DD0E0008E30E0008E10E000859130008D9
:1000D0005B130008AD160008B116000809170008E8
:1000E000F7060008551300089118000800F002F800
:1000F00000F03CF80AA090E8000C82448344AAF186
:100100000107DA4501D100F031F8AFF2090EBAE883
:100110000F0013F0010F18BFFB1A43F0010318473B
:10012000C0580000E0580000103A24BF78C878C1D9
:10013000FAD8520724BF30C830C144BF04680C60ED
:10014000704700000023002400250026103A28BF35
:1001500078C1FBD8520728BF30C148BF0B60704739
:100160001FB5AFF300801FBD10B510BD00F0BEF885
:100170001146FFF7F5FF05F03FF800F0DCF8FFF758
:10018000F3FF00F0E3F80000034800470348044988
:10019000024A044B70470000ED000008F008002000
:1001A000F00A0020F008002040EA010310B59B0788
:1001B0000AD1042A08D310C808C9121F9C42F8D0DB
:1001C00020BA19BA401A10BD0AB9002010BDD307D1
:1001D00001D0521C05E010F8013B11F8014B1B1B2C
:1001E00007D110F8013B11F8014B1B1B01D1921EE6
:1001F000F1D1184610BD032A40F2318010F0030CF3
:1002000000F0158011F8013BBCF1020F624498BF69
:1002100011F801CB00F8013B38BF11F8013BA2F106
:10022000040298BF00F801CB38BF00F8013B11F081
:10023000030300F02980083AC0F0098051F8043B1C
:1002400051F804CB40F8043B40F804CBF3E7121D0F
:100250005CBF51F8043B40F8043BAFF30080D20789
:1002600024BF11F8013B11F801CB48BF11F8012B55
:1002700024BF00F8013B00F801CB48BF00F8012B78
:10028000704770477047704710B5203AC0F00B8038
:10029000B1E81850203AA0E81850B1E81850A0E88A
:1002A0001850BFF4F5AF5FEA027C24BFB1E81850E4
:1002B000A0E8185044BF18C918C0BDE810405FEA54
:1002C000827C24BF51F8043B40F8043B08BF7047D0
:1002D000D20728BF31F8023B48BF11F8012B28BFD5
:1002E00020F8023B48BF00F8012B7047754600F02C
:1002F00029F8AE4605006946534620F007008546BA
:1003000018B020B5FFF742FFBDE820404FF00006CF
:100310004FF000074FF000084FF0000B21F00701ED
:10032000AC46ACE8C009ACE8C009ACE8C009ACE830
:10033000C0098D4670470446AFF300802046FFF7A2
:100340001EFF0000004870478C08002003494FF052
:100350001800ABBE70470000090000002600020034
:1003600070470029816802D041F0010101E021F0CD
:10037000010181607047000070B52A4E90B0304690
:1003800000F02AF92848009028480024012501A9F6
:1003900031C104942802CDE9054080000790202057
:1003A00008900002CDE909046946304600F084F95E
:1003B0000121304600F005F98DF830500B948DF88E
:1003C00031504FF46020CDE90D04174C8DF83C50AE
:1003D0004C3C0BA9204600F047F8052301220E21D2
:1003E000204600F065F80121204600F021F80121A7
:1003F0002046FFF7B6FF204600F094F8204600F0B4
:100400002BF80028FAD1204600F09BF8204600F097
:1004100019F80028FAD10121204600F088F810B020
:1004200070BD0000080002404C2401401C00002068
:100430000029816802D041F4807101E021F48071CB
:1004400081607047014689680020490700D5012076
:100450007047C06C80B27047014689680020090768
:1004600000D501207047704730B542680E4B0C79BB
:100470001A400B6842EA04221343436082680B4B24
:100480004D791A40D1E9024342EA4502234313431E
:100490008360C26A097C22F47002491EC9B242EA32
:1004A0000151C16230BD0000FFFEF0FFFDF7F1FF1A
:1004B00070B5072609290AD9C568A1F10A0404EB19
:1004C0004404A640B543A3401D43C56007E0056949
:1004D00001EB4104A640B543A3401D4305611F2322
:1004E000072A09D2446B521E02EB820293409C43BE
:1004F00091400C43446370BD0D2A09D2046BD21F96
:1005000002EB820293409C4391400C43046370BD14
:10051000C46A0D3A02EB820293409C4391400C4323
:10052000C46270BD816841F0080181607047002994
:10053000816802D041F4A00101E021F4A0018160B2
:100540007047816841F004018160704701488088EC
:10055000704700009803002002490871000A4871A2
:1005600070470000980300207047704770470021D3
:1005700041600160704710B5044600F0B3FC0020F4
:1005800060602060BDE8104000F0BCBC38B50D468E
:100590000446802101F010F901280AD16946284655
:1005A00001F0E9FA012804D19DF80010204601F07D
:1005B0006BF938BD70477047704770477047704798
:1005C00070470029016802D041F0010101E021F0EB
:1005D00001010160704700000268002122F0010261
:1005E0000260016041608160C160304B2F49C21AD6
:1005F0008039984245D018DC2D4BA0EB030298427D
:1006000037D00ADC2B4A80182BD014282DD028286C
:1006100026D1486840F4706036E0142A2DD0282A8C
:100620001ED1486840F470002EE0B2F56C7F32D0E5
:100630000ADCB2F5627F29D0B2F5677F10D1D1F81C
:10064000040440F0F00009E0B2F5717F28D0B2F563
:10065000767F05D1D1F8040440F47020C1F8040479
:100660007047486840F00F000EE0486840F0F00026
:100670000AE0486840F4704006E0486840F47020A2
:1006800002E0486840F0706048607047D1F80404A8
:1006900040F00F00E2E7D1F8040440F47060DDE7B9
:1006A000D1F8040440F47040D8E700008000024014
:1006B00044000240F8FFFDBF70B5026847F6F073D2
:1006C0009A430E6A8B680C693343D1E905562C4373
:1006D0002343CC6933432343D1E909542B432343B8
:1006E00013430360CA6842600A6882604968C16057
:1006F00070BD7047704710B54FF40054204600F0AD
:1007000053F810B1204600F013F84FF480542046FF
:1007100000F04AF8002804D02046BDE8104000F060
:1007200007B810BD704770477047704770470000AA
:100730000149086070470000140401402DE9FC41A4
:100740000D21022000F050FB0C21022000F04CFB98
:1007500000258DF804500C264FF400588DF80560E4
:100760000127CDF800808DF80670684600F02AF861
:100770008DF804503C038DF8056000948DF80670E8
:10078000684600F01FF8204600F006F8404600F0EA
:1007900003F8BDE8FC81000002490A6802430A60D0
:1007A0007047000010040140054B01461A68002004
:1007B0005B690A400B4202D0002A00D0012070473A
:1007C0000004014010B5837920490268A3B3D1F831
:1007D00000349343C1F80034D1F8042403689A43E9
:1007E000C1F80424027904680A44D2F8003423438F
:1007F000C2F80034D1F8082403689A43C1F80824E9
:10080000D1F80C2403689A43C1F80C244279102AC9
:100810000AD101F581610A6803681A430A604A68CF
:10082000006802434A6010BD1144D1F800240068FA
:100830000243C1F8002410BDFFE700790844D0F856
:1008400000149143C0F80014F5E7000000000140D7
:100850000149C860704700000020024070B505469D
:1008600040F6FF76304600F07DF8042813D10A4C9C
:10087000206940F0020020616561206940F040007D
:100880002061304600F06EF8012804D0216941F65D
:10089000FD721140216170BD002002400849042012
:1008A000CA68D20701D001207047CA68520701D533
:1008B00002207047C968C906FBD5032070470000B5
:1008C00000200240704700000248016941F08001A9
:1008D000016170470020024004490A6822F01002BA
:1008E0000A600A6802430A60704700000020024064
:1008F000F0B505460E460F2000F034F8042816D156
:100900000B4C206940F0010020612E800F2000F088
:1009100029F841F6FE77042804D1300C68800F20B6
:1009200000F020F8012802D0216939402161F0BD92
:100930000020024004490A6802F038020A600A688E
:1009400002430A6070470000002002400348024949
:100950004160034941607047230167450020024020
:10096000AB89EFCD00B50346FFF798FF05E0FF2008
:10097000401EFDD1FFF792FF5B1E012802D1002B24
:10098000F5D101E0002B00D1052000BD10B50B46CC
:10099000002458B90124204604F0B0F818B9641CAA
:1009A000142CF8DD23E0142C22DD20E0012811D1E5
:1009B000022004F0A3F808B1022419E0152420460F
:1009C00004F09CF818B9641C452CF8DD0FE0452CA8
:1009D0000EDD0CE002280BD14624204604F08EF8F0
:1009E00018B9641C752CF8DD01E0752C00DD0024BD
:1009F000601E742803D81946E0B200F06BF8E0B22C
:100A000010BD08B504228DF800208DF801008DF886
:100A10000210684604F0B4F808BD75210020FFF705
:100A2000F0BF10B510B97521012008E0012802D1EE
:100A30004521152003E0022803D175214620FFF748
:100A4000E0FF002010BD0000F8B506460D46FF246B
:100A500009E000BF9DF800003A2804D19DF800008D
:100A6000002428700DE06946304601F084F8012822
:100A7000F0D074B905E0641C0C2C02DA9DF800007B
:100A800028556946304601F076F80128F3D0601CFD
:100A9000F8BD0020F8BD01783A2901D140787047AF
:100AA000FF20704708B500208DF800008DF8010088
:100AB0008DF80200684604F063F808BD08B503220B
:100AC0008DF800208DF801008DF80210684604F0C2
:100AD00057F808BD08B502228DF800208DF80110E6
:100AE0008DF80200684604F04BF808BD10B50022EE
:100AF0000521435C491C1A44D2B20829F9DB41792B
:100B00003A290AD18179042907D1C179AA2904D1C6
:100B1000037A13B9437A93422AD000221146435CE8
:100B2000491C1A44D2B20429F9DB03783A2B0AD1C2
:100B30004178042907D18178AA2904D1C47814B94D
:100B40000479944214D000221146445C491C22448A
:100B5000D2B20429F9DB3A2B0CD14178042909D10E
:100B60008178AB2906D1C37823B90079904201D1AD
:100B7000084610BD002010BD41793A2905D1817980
:100B800019B9017A09B9C079704701783A2905D1B4
:100B9000417819B9C17809B9807870470020704749
:100BA00030B500230522845C521C2344DBB20A2AA0
:100BB000F9DB44793A2C0DD18279022A0AD1C27923
:100BC000AA2A07D1027A012A04D1827A9A4201D153
:100BD000427A16E000231A46855C521C2B44DBB295
:100BE000052AF9DB05783A2D0ED14278022A0BD17D
:100BF0008278AA2A08D1C278012A05D19C4203D161
:100C000002790A70807830BD00221146435C491C8D
:100C10001A44D2B20429F9DB3A2D0CD141780229C9
:100C200009D18178AB2906D1C37823B900799042E4
:100C300001D1084630BD002030BD30B500231A4632
:100C4000845C521C2344DBB2042AF9DB04783A2C7E
:100C50000CD14278032A09D18278AB2A06D1C57813
:100C600025B905799D4201D1104630BD00231A46B1
:100C7000855C521C2B44DBB2052AF9DB3A2C0FD1E0
:100C80004278032A0CD18278AA2A09D1C278012A93
:100C900006D142799A4203D102790A70807830BD38
:100CA00000230522845C521C2344DBB20A2AF9DBB0
:100CB00042793A2A0FD18279032A0CD1C279AA2A21
:100CC00009D1027A012A06D1827A9A4203D1427A64
:100CD0000A70C07930BD002030BD00002DE9F84316
:100CE0005320ADF800001026DFF8F0808DF8036087
:100CF00003248DF802406946404600F089F84FF41D
:100D0000D070ADF8000004258DF803508DF8024036
:100D10006946404600F07CF8ADF8005018278DF881
:100D200003708DF802406946404600F071F80820D3
:100D3000ADF800008DF803506946404600F068F8B1
:100D4000E801ADF800008DF803708DF802406946A7
:100D5000404600F05DF82802ADF800008DF8035021
:100D60006946404600F054F840F20520ADF8000016
:100D70001B4F8DF803608DF802406946384600F03D
:100D800047F80220ADF800008DF803508DF80240BE
:100D90006946384600F03CF84FF47070ADF800003A
:100DA0008DF803608DF802400E4C6946204600F035
:100DB0002FF840F62F40ADF800008DF8035069463B
:100DC000204600F025F8ADF8006000208DF8030003
:100DD0006946204600F01CF8BDE8F8830008014091
:100DE000000C01400010014010B58A0721F00304F7
:100DF0000649120F21440F238C6893409C438C605A
:100E00008B68904003438B6010BD000000000140E0
:100E1000F0B5CB780022DC0603F00F0301D58C7807
:100E200023430C880F2714F0FF0F4FF0010C1CD048
:100E3000D0F800500E880CFA02F42640A64210D1D9
:100E4000960007FA06FE25EA0E0E03FA06F5CE789E
:100E500045EA0E05282E00D14461CE78482E00D1F7
:100E60000461521C082AE5D305600A88FF2A1ED9AE
:100E70004568002202F108060CFA06F40E882640A6
:100E8000A64210D1960007FA06FE25EA0E0E03FAD6
:100E900006F5CE7845EA0E05282E00D14461CE78BD
:100EA000482E00D10461521C082AE3D34560F0BDEE
:100EB000806880B270470246926800200A4200D0E3
:100EC000012070470246D26800200A4200D001206B
:100ED00070474161704701617047704770477047C4
:100EE0007047704710B502210022480700F056FBFA
:100EF000BDE81040002240F22551014800F063BCDB
:100F00000044004010B502210122480700F046FBD2
:100F1000BDE81040012240F22551014800F053BCC9
:100F20000044004002494CF6CC4008607047000085
:100F30000030004002494AF6AA20086070470000CD
:100F40000030004001494860704700000030004018
:100F50000149886070470000003000400149086086
:100F600070470000003000407047704738B50021DE
:100F70004FF0006000F07AF814208DF80000002493
:100F80008DF801408DF8024001258DF80350684628
:100F900000F031F81C208DF800008DF801408DF82C
:100FA00002408DF80350684600F025F825208DF8A2
:100FB00000008DF801408DF802408DF8035068461E
:100FC00000F019F826208DF800008DF801408DF80A
:100FD00002408DF80350684600F00DF828208DF887
:100FE00000008DF801408DF802408DF803506846EE
:100FF00000F001F838BDF0B50F23C27801784FF04A
:10100000E024012742B3D4F80C2D467802F4E062C4
:10101000C2F5E062120AC2F10405D3408278AE4004
:101020001A40324315018A07D20E954021F0030180
:101030000B19D3F80064FF2191408E430D402E43DD
:10104000C3F800640078410900F01F0004EB81013F
:101050008740C1F80071F0BD01F01F0087404809CA
:1010600004EB8000C0F88071F0BD0000024A11401E
:10107000014302480160704780FFFF1F08ED00E058
:1010800070477047034A516821F440410143516061
:101090007047000000100240044A0029516901D045
:1010A000014300E08143516170470000001002409D
:1010B000044A0029D16901D0014300E08143D16194
:1010C0007047000000100240044A0029916901D0D5
:1010D000014300E08143916170470000001002402D
:1010E00010B500F041F84FF48034204600F0CEF8FF
:1010F00000F016F9012825D1002000F0BDF80020ED
:1011000000F0EAF8A01100F0DDF8A010FFF7BAFF38
:101110000220FFF70FFC1020FFF7DEFB4FF4E01179
:10112000204600F0E9F8012000F0E0F8392000F056
:1011300083F80028FAD0022000F0E8F800F094F8D4
:101140000828FBD101210846FFF7A6FF012144F240
:101150001D20FFF7B9FFBDE8104001210148FFF74E
:10116000A7BF0000010002020B48016841F0010125
:1011700001604168094A114041600168084A114014
:101180000160016821F4802101604268002122F49D
:10119000FE02426081607047001002400000FFF8CC
:1011A000FFFFF6FE30B5204A5168204B11F00C01CC
:1011B00003D0042901D0082901D0036011E051684F
:1011C000022401F4701104EB91415468184D14F499
:1011D000803F02D05468A40301D5694300E059431D
:1011E00001605168134B01F0F00109095C5C016872
:1011F000E1404160546804F4E064240A1C5D21FA73
:1012000004F48460546804F46054E40A1B5DD9401B
:10121000C1605268074B02F44042920B1B1F9A5C5C
:10122000B1FBF2F1016130BD0010024000127A0002
:1012300000093D00CD590008034600205909094A1C
:10124000012901D1116804E0022901D1116A00E0ED
:10125000516A03F01F02012393400B4200D001208A
:1012600070470000001002400248406800F00C0087
:101270007047000000100240034A516821F0F0015D
:101280000143516070470000001002400B490A689A
:1012900022F480320A600A68B0F5803F22F480228E
:1012A0000A6007D0B0F5802F03D1086840F4A02071
:1012B00008607047086840F48030F9E70010024089
:1012C00070470000034A516821F4E0610143516016
:1012D0007047000000100240034A516821F4605139
:1012E00041EAC000506070470010024001490866A2
:1012F0007047000000004242034B5A68084322F442
:101300007C1210435860704700100240034A516835
:1013100021F00301014351607047000000100240BA
:1013200030B50B4C40F2FF153120FFF785FF2070E0
:101330006068401C6060207810B96068A842F3D1F2
:101340003120FFF779FF002800D0012030BD0000D8
:1013500098000020704770477047704770474160A1
:1013600001600272704770B504460D461646FFF7DD
:10137000B9FD656025602672BDE87040FFF7C2BD0B
:101380007047704770477047704770477CB50221BF
:101390004C07204600F0F6F8002877D002212046BE
:1013A00000F0AEF8204600F0EBF84E4D29880844D6
:1013B00081B2204600F05AF9E869401CE861400516
:1013C00006D119208DF800006946474803F06BFDEF
:1013D000464E002404EB440056F820207AB106EB78
:1013E0008000416811B1491E416008E04260007A06
:1013F0008DF8000069463C48019403F054FD641CDC
:10140000A4B2032CE6D3A8684FF4C871401CA860AE
:10141000884201DDA9600AE0884208D102200190DB
:1014200014208DF8000069462F4803F03CFD304938
:10143000086808B1401E0860A869B0F5F07F01DABD
:10144000401CA86128694FF4FA51884201DA401C17
:1014500028616869A0F10A028A4201D2401C6861D1
:10146000E9682448BD293ADC491CE960B1F1500221
:101470000CD4002250290AD1402104466A60FFF7AB
:1014800028FD10214FEA0400FFF723FD7CBD512900
:1014900001D1402117E0184CBE26542907D1402124
:1014A000FFF717FD20780028F0D1EE607CBDA1F198
:1014B0005403002BFADD24786B68A3420CDAC907C9
:1014C0004FF0100102D0FFF706FD7CBDFFF701FDD4
:1014D0006868401C68607CBDC5E903627CBD102162
:1014E000D2E7000078000020E40000203401002052
:1014F00018000020000801402300002070477047BA
:10150000C943018270470029018802D041F00101DE
:1015100002E040F2FE3211400180704730B587B0E2
:101520004FF6FF70ADF8140002240020ADF8104013
:10153000ADF81600ADF81200650704A9284600F0C2
:1015400097F83020ADF800000120ADF8020040F21D
:10155000FF70ADF80600ADF808406946284600F077
:1015600025F8FF20ADF80600ADF80840694628468A
:1015700000F04CF801212846FFF7C5FF07B030BD49
:10158000808E70470246138A002092890B4202EA3D
:10159000010202D0002A00D001207047002A82896F
:1015A00001D00A4300E08A4382817047F0B5028C83
:1015B00022F001020284058C8288038B0C8823F0C0
:1015C00070030E8925F002051C434B882E43CF88FB
:1015D0000C4D33438786A84202D00B4DA8420DD153
:1015E0004D8923F008031D4325F004068B8822F45F
:1015F000034533438E89CA892E4332438280048354
:101600000384F0BD002C01400034014070B5028C11
:1016100022F480520284058C8288838B25F4005545
:1016200023F4E0440B880F4E1B0644EA13430C8955
:10163000240745EA14444D882D0744EA1545CC8813
:10164000B042A0F8404002D0074CA04205D18989A1
:10165000C2F30D04890544EA114282808383058424
:1016600070BD0000002C01400034014081867047AD
:1016700010B5028802F08F020280CA884B88048865
:101680001A43224302808A88064C012382850A88F5
:10169000A0420285838202D0034A904201D1097A96
:1016A000018610BD002C014000340140704700004D
:1016B0003EB5114C40F22551204600F07DF801283E
:1016C0000BD1204600F0DCF88DF8080002A90B4889
:1016D00000F00AFA0A490020886040F2266120469C
:1016E00000F06AF8012806D113208DF80000694641
:1016F000044803F0D8FB3EBD004400400008002031
:1017000078000020E4000020704730B5028A4FF2D4
:10171000FF031A400B884D888C88C9882B430C43E3
:1017200023431343038230BD0029818902D041F451
:10173000005101E021F400518181704730B587B03C
:1017400000244FF40070ADF80800194DADF80440C6
:10175000ADF80640ADF80A4001A92846FFF7D5FFCD
:101760004FF4E1300390ADF814400C20ADF8104078
:10177000ADF81600ADF81240ADF8184003A92846A0
:1017800000F03AF801212846FFF7CEFF4FF416503B
:10179000084C039001A92046FFF7B7FF03A9204694
:1017A00000F02AF801212046FFF7BEFF07B030BD48
:1017B00000380140004400400246128800200A42DE
:1017C00000D00120704710B5C1F3421301F01F048F
:1017D0000121A140012B01D10C3004E0022B01D1E9
:1017E000103000E01430002A026801D00A4300E003
:1017F0008A43026010BD000030B50446008A85B0FF
:101800000D464CF6FF710840E98801432182A0890A
:101810004EF6F3110840A9882A8911436A890243C8
:101820001143A181A08A4FF6FF410840A9890143D5
:10183000A1826846FFF7B6FC1048844201D10398A4
:1018400000E0029819214843296864228900B0FB0E
:10185000F1F0B0FBF2F109010B096FF018056B43D1
:10186000322500EB830005EB0010B0FBF2F000F036
:101870000F000843208105B030BD00000038014052
:101880008088C0F308007047C1F308018180704769
:10189000704770477047704770471CB5044603F0A7
:1018A00029FF6946204600F066F8012804D1694600
:1018B000204603F0BFFE1CBDA0680028FBD000201E
:1018C000A060627B4FF448712069FFF74CFD1CBD9E
:1018D0001CB504468068002809D16946204600F0FE
:1018E0004AF8012803D16946204603F0A3FE1CBD37
:1018F00010B5162315220449044800F032F8BDE85B
:101900001040024803F0F6BE4001002070020020A3
:1019100030B5D0E900435A1CA24207D0D51702EBDC
:10192000157525F00F05521BA24201D1002030BDD4
:101930000A7900EBC3031A7643680A6800EBC30315
:101940005A614268497900EBC20251764168491CEC
:10195000CA1701EB127222F00F02891A41600120AE
:1019600030BD10B50024046044600273437301610C
:101970004C600C6010BDD0E90023934201D10020DF
:10198000704700EBC202127E0A71026800EBC202CD
:1019900052690A60026800EBC202527E4A71016815
:1019A000491CCA1701EB526222F07F02891A0160BA
:1019B0000120704730B50024914202D94FF6FF70E4
:1019C00030BD0B4604E000BF50F823505B1C2C4494
:1019D0009342F9DB501A401CB4FBF0F030BDF0B577
:1019E0000023491ECCB229E0641EE7B200241A4647
:1019F0000CE000EB820650F822107568A94203D96A
:101A000040F8225014467160521CD2B2BA42F0D94A
:101A10005B1CDFB2002321460EE000EB810555F888
:101A2000042C50F82160B24204D940F8212045F836
:101A3000046C0B46491EC9B2B942EED2A342D3D3BD
:101A4000F0BD00007CB5F9248DF804400D4E0E2544
:101A500000968DF8055069460B48FFF759FF8DF841
:101A6000044000968DF8055069460748FFF750FF7F
:101A70008DF8044000968DF8055069460248FFF73E
:101A800047FF7CBD80380100040300207CB5F925A8
:101A90008DF80450094C0E2600948DF805606946B7
:101AA0000748FFF735FF8DF8045000948DF8056066
:101AB00069460348FFF72CFF7CBD00008038010019
:101AC000040300201CB5F9208DF8040004480090A0
:101AD0000E208DF8050069460248FFF719FF1CBD6E
:101AE000803801000403002030B5D0E900435A1CBF
:101AF000A24207D0D51702EB556525F07F05521B92
:101B0000A24201D1002030BD0A7800F10C015A54E4
:101B10004168491CCA1701EB526222F07F02891A00
:101B20004160012030BD70B504460D46FFF7DAF97B
:101B300029462046FFF7D8FF0446FFF7E3F9204681
:101B400070BD00214160016081607047D0E90023D1
:101B5000934201D10020704700F10C03D25C0A705F
:101B60000168491CCA1701EB526222F07F02891AF0
:101B700001600120704770B504460D46FFF7B2F9C9
:101B800029462046FFF7E2FF0446FFF7BBF920464F
:101B900070BD00002DE9FF5F0446684603F032FC8B
:101BA00020788DF80000606801909DF80010DFF843
:101BB000F483FD48FD4E0025FD4CA8F11C070429C7
:101BC00036D012DC012926D0022923D12068401CFE
:101BD00020600F281EDDF74803F05EF9F6480290FA
:101BE00002A9F44803F002FDD8E105292CD01829F8
:101BF000EBD103F0B9FCB878401CC0B2B8701A2819
:101C00007ED22168072901DD0721216018F8000034
:101C100003F0A4FEF8E102224FF4FA51E7482560F0
:101C2000FFF7A1FBFFF74EFFB97818F80100EFE7C7
:101C30000121FFF750F901213046FFF74AF902214F
:101C40003046FFF748F9DFE101991329E2D2DFE8D6
:101C500001F0FE1A1A1A1A1A1A1A1A1A1A1A1AFE5F
:101C6000FEFE1AFE0A0021680129D3DB3969082922
:101C700009D0D04803F010F9D148029002A9CD480C
:101C800003F0B4FC89E10121C748FFF724F9C74EEE
:101C900001213046FFF71DF902213046FFF71BF9FD
:101CA000C84E386901993154401C38611A20B94630
:101CB000B87003F059FCFFF705FF3869DFF808B387
:101CC00002287ED13078DFF8DC82C04FDFF800A335
:101CD000A8F10808032818D1707802286DD10122D4
:101CE0004FF4FA51B5482560FFF73DFB03F03CFC8B
:101CF000FFF7E8FEAF4803F0CFF8B64802A900E0CE
:101D00007BE10290AB4803F071FC3078072851D199
:101D10007078022826D102F017FF0028A7484FF05C
:101D200001024FF4F071256008D0FFF71CFB03F0AF
:101D30001BFCA04803F0B0F802970CE0FFF713FB80
:101D400004219948FFF7C7F803F00EFC994803F007
:101D5000A3F8A148029002A9964803F047FC307806
:101D6000072827D17078032859D102F0EDFE68B119
:101D700001224FF4F07191482560FFF7F4FA03F067
:101D8000F3FB8C4803F088F802970FE003F0ECFBBC
:101D900001224FF4487189482560FFF7E4FA8F4823
:101DA0000560844803F078F88D48029002A98148C4
:101DB00003F01CFC307803282ED1707801287ED1E6
:101DC00000E0ACE002F0C0FE88B101224FF4F071F7
:101DD0007A482560FFF7C7FA03F0C6FB754803F0A1
:101DE0005BF802A97348029703F000FC14E07D48F9
:101DF000C8F800006F4803F04FF802A96D48CDF80D
:101E000008A003F0F3FB03F0AFFB01224FF448718D
:101E10006A482560FFF7A7FA307807282DD1707837
:101E20000128CCD102F090FE90B101224FF4F07164
:101E300062482560FFF797FA03F096FB5D4803F0D0
:101E40002BF802A95B48029703F0D0FB15E0D3E022
:101E500065495848C8F8001003F01EF802A9554813
:101E6000CDF808A003F0C2FB03F07EFB01224FF483
:101E7000487152482560FFF776FA307805287DD101
:101E800070780C2818D180214848FFF714F80128F1
:101E90000FD1484803F000F802A94648CDF808B031
:101EA00003F0A4FB01224FF4487144482560FFF77A
:101EB0005AFA3078052861D17078092800E05DE091
:101EC00018D180213948FEF7F6FF01280FD1394893
:101ED00002F0E2FF4548029002A9364803F086FB73
:101EE00001224FF4487135482560FFF73CFA3078FD
:101EF000052843D17078082840D180212B48FEF76F
:101F0000DAFF01283AD12B4802F0C6FF3848029088
:101F100002A9284803F06AFB03F026FB27E0092802
:101F20002CD1307802286FD170780A286CD1B07823
:101F30000B2869D1F078052866D13079022863D161
:101F40007079012860D1B07901285DD1F079092834
:101F50005AD1307A102801D0122855D1154802F0F4
:101F60009BFF02A91348CDF808B003F03FFB012204
:101F70004FF4487111482560FFF7F5F9D9F81000C2
:101F8000092841DD0B4802F087FF1A48029002A998
:101F9000084803F02BFB03F0E7FA256001224FF419
:101FA00048712EE054000020000C01400008014060
:101FB00010000020A0000020A1280008340100200B
:101FC000C9200008F4070020953F000809340008E4
:101FD000B538000899270008F130000814000020E7
:101FE000F12A0008793A0008BD3900083D4500088B
:101FF0007D4100081520000806E002224FF4FA5146
:1020000025600348FFF7AFF9002004B0BDE8F09F5A
:10201000340100207CB5007825494FF4487501282B
:1020200014D0244C022829D0182839D103F09CFA66
:1020300001212148FEF746FF204A012190B31646B0
:102040001046FEF746FF022130462DE000200860D2
:1020500002224FF4FA511A48FFF785F903F084FA87
:10206000FFF730FD202003F079FC1C2003F076FC04
:10207000FFF7E8FC284603F06DF811E00868401C03
:1020800008600A280CDD0F4802F006FF69460D487B
:10209000009403F0ABFA012229460948FFF763F9DF
:1020A00000207CBDFFE71046FEF715FFEBE70000C0
:1020B00010000020A1280008000C01400008014089
:1020C00034010020A00000202DE9FC410178404EA1
:1020D000404D414C4FF44877052942D013DC3F4A2C
:1020E00001292AD0022915D0042956D101212046E0
:1020F000FEF7F1FE01212846FEF7EBFE02212846FD
:10210000FEF7E9FE49E016294AD0182945D103F027
:102110002BFA42E01068401C10600A283DDD304870
:1021200002F0BAFE69462E48009603F05FFA0122DB
:1021300039462C48FFF717F92FE0002010600222E3
:102140004FF4FA512748FFF70EF903F035F802F083
:102150009DFE10B3002003F043FA234802F05EFD19
:102160001BE040680D2818D2DFE800F017070707CA
:102170000707070707070707070001212046FEF7A3
:10218000AAFE01212846FEF7A4FE02212846FEF7FA
:10219000A2FE03F0E9F9FFF795FC0020BDE8FC8101
:1021A000FFF7A6FB01212046FEF793FE04212046FF
:1021B000FEF78FFE4FF4007529462046FEF789FE94
:1021C00029462046FEF777FE0028F5D1A7E7000054
:1021D000A128000800080140000C01401000002068
:1021E000A000002034010020980300202DE9FF41C9
:1021F00002788DF80020406801900027D0B2484C4A
:10220000484D4FF4FA510C283ED00EDC4FF0010639
:10221000012817D002281CD007287DD00B287BD19D
:1022200002224148FFF79FF876E04FF448760E28E7
:1022300037D011281DD016286CD018286CD103F087
:1022400093F969E0022238482760FFF78CF831469D
:1022500022E02068401C20600A285DDB8DF80060C9
:102260006946324802F043FE314802F015FE31481B
:102270004AE0012231462C482760FFF774F82C48C9
:1022800002F00AFE2C483FE0022227482760FFF7B1
:102290006AF82878401CC1B229700020FEF71AFCA9
:1022A0003AE00C2245F6C0511F482760FFF75BF863
:1022B0002878012809D103F057F9FFF703FC1E2005
:1022C00003F04CFBFFF7FEFB26E0022824D1A521FA
:1022D000002002F04DFC194800684106184801D55D
:1022E000A52100E0A0210173154802F097FC04210C
:1022F0001448FEF7EEFD03F037F9012231460A4893
:102300002760FFF730F81048029002A9084803F050
:102310006DF901E0FFF7ECFA002004B0BDE8F081B0
:10232000100000203000002034010020E4000020D4
:10233000A0000020A1280008913100080C00002016
:1023400098030020000C01404D2300082DE9FC41BA
:1023500000780024274D4FF44878012814D0264EE9
:1023600002282BD018283CD103F0FEF80121234885
:10237000FEF7A8FD224A0121B0B317461046FEF72A
:10238000A8FD0221384631E002224FF4FA511D48DF
:102390002C60FEF7E8FF03F0E7F8FFF793FB14204B
:1023A00003F0DCFA102003F0D9FA172003F0D6FA74
:1023B000FFF76CFB404602F09BFE12E02868401CD1
:1023C00028600A280DDD104802F066FD69460E48B7
:1023D000009603F00BF9012241460A482C60FEF7F3
:1023E000C2FF0020BDE8FC81FFE71046FEF773FD49
:1023F000E9E7000010000020A1280008000C0140BF
:102400000008014034010020A00000202DE9FC411B
:102410000078354D0026354C4FF4FA570D285CD026
:1024200010DC01283DD0022822D0082858D10222F1
:1024300039462F48FEF797FF2068401C2060FEF7C2
:1024400031FB4DE0162829D0182849D103F08CF82B
:102450002E60206804281AD3264802F01DFD264865
:1024600000906946234803F0C1F80122394611E083
:102470002868401C28600A2832DB1E4802F00CFD48
:102480001E48009069461B4803F0B0F828E001227E
:102490004FF448711648FEF766FF21E0FFF728FA6F
:1024A0001EE00822394612482E60FEF75CFF042128
:1024B0001348FEF710FD266003F056F8102003F0D5
:1024C0004DFA252003F04AFA142003F047FA23209E
:1024D00003F044FAFFF7F6FA02E02068001D2060DE
:1024E0000020BDE8FC810000100000201400002046
:1024F00034010020A0000020ED210008A1280008E0
:10250000000C01402DE9FC41374C00786168374DE3
:10251000491C4FF4487711284DD031DC344A4FF034
:10252000000601283AD0022831D00F2858D131486E
:10253000007803283FD2166001224FF4FA412E485A
:10254000FEF711FF2D48066003F00EF8FFF79EFA24
:102550001F2003F003FA192003F000FA384602F0B6
:10256000C7FD232003F0FAF902F09AFD244802F097
:1025700093FC244800906946214803F037F82FE087
:10258000162808D018282BD102F0EEFF28E010689A
:10259000401C106024E0FFF7ABF921E01660022236
:1025A0004FF4FA511448FEF7DEFE02210020FEF738
:1025B00085FA666014E06160032904DA02210020D4
:1025C000FEF77CFA0CE00E4802F066FC69460C4807
:1025D000009503F00BF8012239460748FEF7C3FEC9
:1025E0000020BDE8FC81000030000020913100088F
:1025F0001000002000000020340100201400002002
:10260000A0000020092600082DE9FF4701788DF879
:10261000001040680190C8B2524C0025DFF848A174
:10262000524E534FDFF84C814FF4FA514FF4487932
:102630000C2848D014DC4FF00109012828D00228CA
:102640006ED12068401C20600A2869DBFFF7FAF988
:102650008DF800906946484802F049FC474873E00D
:102660000E284CD011282CD0182876D102F07CFFEF
:1026700001214348FEF726FC424A00284FF00101A1
:1026800068D014461046FEF724FC0221204662E082
:1026900002223D482560FEF766FE88F800904C4611
:1026A00049469AF80000FEF771F93870C0B2002868
:1026B00053D18DF8004069462F4802F018FC02966D
:1026C00043E0256012E002222F482560FEF74BFE12
:1026D00098F80000401CC1B288F800109AF8000079
:1026E000FEF754F93978884237D0387001224946CC
:1026F0002548FEF738FE254802F0CEFBDFE798F8C4
:10270000000001280DD102F02FFF1E2003F026F952
:10271000FFF7D8F90C2245F6C0511B48FEF723FEFF
:102720001BE0022819D1A521387802F021FA1848B7
:1027300002F074FA0122494613482560FEF713FEA1
:10274000124802F0A9FB1348029002A90F4802F0B8
:102750004DFF02E01046FEF7BEFB002004B0BDE8CE
:10276000F0870000100000200000002091310008D8
:102770000100002030000020E4000020A128000813
:10278000000C01400008014034010020A00000209E
:1027900098030020213200082DE9FC410078384CD4
:1027A000384D00264FF448784FF4FA57082856D091
:1027B00012DC012824D002285FD12868401C286040
:1027C0000A285ADB304802F067FB3048009069461F
:1027D0002D4802F00BFF50E00D284BD018284CD1AB
:1027E00002F0C2FE2E602068042818D3264802F0AA
:1027F00053FB274800906946234802F0F7FE0EE09D
:1028000002F0B2FE02F0A0F978B11F4802F044FBDA
:102810002048009069461C4802F0E8FE2E60012224
:1028200041461D48FEF79FFD27E004211B48FEF7A7
:1028300052FB0822394618482E60FEF794FD1F20EF
:10284000266003F08BF8252003F088F8142003F0AD
:1028500085F8232003F082F8FFF734F90DE0022217
:1028600039460D48FEF77FFD2068401C2060FEF7CA
:1028700019F902E02068001D20600020BDE8FC81FD
:102880001400002010000020A0000020A128000853
:10289000052500080D24000834010020000C01402B
:1028A0002DE9FC4700783E4D3E4E00273E4C4FF44C
:1028B0007A694FF4FA5801284FD0022806D0182818
:1028C0006BD102F051FEFFF7BDF863E02068401CB9
:1028D00020600A2861DB354802F0DEFA34480090B7
:1028E0006946324802F082FE0222414631482760A2
:1028F000FEF739FD02F068FEA02805D0A02002F006
:1029000069FE2D4802F08AF92C4F40213846FEF727
:10291000E0FA80213846FEF7DCFA7C15214638467D
:10292000FEF7D7FA01213046FEF7D3FA01212846F7
:10293000FEF7D1FA02212846FEF7CDFA04213046EF
:10294000FEF7C7FA21463046FEF7C3FA2146304665
:10295000FEF7B1FA0028F5D11FE0022241461548E2
:102960002760FEF700FD164800688005B3D502F029
:10297000FBFD01213046FEF7A5FA012120B12846D2
:10298000FEF7A7FA0221FFE72846FEF7A4FA28205F
:1029900002F0E4FF484602F0DBFD0020BDE8FC87C2
:1029A00000080140000C014010000020A0000020A1
:1029B0006D4C0008340100209803002000100140F5
:1029C0000C0000202DE9FF41007801284BD002289F
:1029D0004FD12A4D2868012841DB294802F05CFAD2
:1029E0002848029002A9264802F000FE01208DF836
:1029F00000006946244802F07AFA0020286002228A
:102A00004FF4FA512148FEF7AEFC214F40213846E1
:102A1000FEF75FFA80213846FEF75BFA1D4E012172
:102A20003046FEF756FA1C4C01212046FEF753FAB9
:102A300002212046FEF74FFA04213046FEF749FAFC
:102A4000641521463846FEF744FA21463046FEF723
:102A500040FA21463046FEF72EFA0028F5D12868C4
:102A6000401C286005E002224FF448710748FEF739
:102A70007AFC002004B0BDE8F081000010000020C6
:102A8000A00000206D4C0008E4000020340100206C
:102A900000100140000C0140000801401CB5007806
:102AA0000F49012805D0022818D10868401C086089
:102AB00014E00020086002F057FD02224FF4FA51A2
:102AC0000848FEF750FC084802F0E6F90748009075
:102AD0006946054802F08AFDFDF7E4FF00201CBDB1
:102AE0001000002034010020A000002085330008E1
:102AF0007CB5017800262F4C4FF4FA55052925D0D6
:102B000012DC012917D0022952D12068401C206014
:102B10000A284DDB284802F0BFF928480090694692
:102B2000254802F063FD3EE00D293CD018293FD135
:102B300002F01AFD3CE00222294621482660FEF7F9
:102B400012FCFDF7AFFFFEF7BDFF31E04068102833
:102B500001D012282CD1184802F09EF91948009093
:102B60006946154802F042FD01224FF448711448AD
:102B70002660FEF7F8FB02F027FD401CA22809D1D1
:102B80000D4802F089F91048009069460A4802F0A1
:102B90002DFD0DE0A12800D0A02002F01BFD0B4868
:102BA00002F03CF804E0022229460548FEF7DBFB70
:102BB00000207CBD10000020A0000020A1280008FB
:102BC00034010020CD2C0008D12B000898030020F0
:102BD0002DE9FC470078DFF8D4800026344F354CCF
:102BE0004FF4FA554FF44879102843D017DC0128E8
:102BF0001CD0022829D00A2855D1022229462E4865
:102C0000FEF7B1FB2660FF2108467E6001F082FFDF
:102C1000A02002F0DFFC294802F000F840E0112873
:102C200039D018283FD102F09FFC3CE00A22294607
:102C30002148FEF798FB04214046FEF74CF9FEF7C9
:102C400041FF484602F084FC2DE02068401C2060D3
:102C50000A2828DB1A4802F01FF91A480090694632
:102C6000174802F0C3FC0222294626601248FEF7EC
:102C70007AFB18E004214046FEF72BF9104802F0D9
:102C80000BF91148009069460D4802F0AFFC012293
:102C900049462660EAE77868401C78600328D9DA5C
:102CA0000020FDF7BEFE0020BDE8FC87000C0140BF
:102CB0003000002010000020340100209803002084
:102CC000A0000020792D0008CD2C00087CB50078EC
:102CD000254C4FF4FA5501281AD0022804D01828A0
:102CE00040D102F041FC04E02068401C20600A282A
:102CF00038DB1E4802F0D0F81D48009069461B489A
:102D000002F074FC022229461A48FEF72CFB29E047
:102D100002F05AFCA02817D1122002F01FFE132047
:102D200002F01CFE142002F019FE172002F016FE1D
:102D300002F0B6F9284602F00BFC02F0B1F94FF4AC
:102D4000487002F0D5F906E0A12802D102F0A8F9F6
:102D500001E0FEF777FE022229460648FEF703FB54
:102D60000020206000207CBD10000020A00000207A
:102D7000C5290008340100202DE9FC410078002518
:102D8000274C284F4FF44878012814D0264E0228AB
:102D90002AD0182835D102F0E7FB01213846FEF78A
:102DA00091F8224A012178B317461046FEF791F8B0
:102DB000022138462AE002224FF4FA511C48FEF75D
:102DC000D2FA042138462560FEF783F802F0CCFBE6
:102DD000122002F0C3FD182002F0C0FDFEF732FE03
:102DE000404602F0B7F90CE02068401C20600A2839
:102DF00007DD104802F050F869460E48009602F0D0
:102E0000F5FB0020BDE8FC81FFE71046FEF763F804
:102E10000122414606482560FEF7A5FAE9E70000D1
:102E200010000020000C0140A1280008000801400B
:102E300034010020A00000207CB50078294C4FF41C
:102E400048750F282BD00ADC274901281ED00228FC
:102E50001AD10868401C08600A2815DB34E01128E4
:102E600027D0182810D102F07FFB01224FF4C8614F
:102E70001E48FEF778FA1E4802F00EF81D48009032
:102E800069461B4802F0B2FB00207CBD00200860B0
:102E900002224FF4FA511548FEF765FA0FE00122BD
:102EA00029461248FEF75FFA114801F0F5FF124873
:102EB000E5E712494868401C4860032804DA02210B
:102EC0000020FDF7FBFDDFE7094801F0E5FF69465B
:102ED0000748009402F08AFB012229460348FEF7C6
:102EE00042FAD1E7792D00081000002034010020BB
:102EF000A00000206D4C0008012F000830000020C9
:102F00002DE9FC410078394E00244FF44877102811
:102F100054D026DC364D4FF4FA51012848D002280F
:102F200033D00A285FD1022232482C60FEF71BFA08
:102F3000314C2078FDF775FDFF21207801F0EAFD86
:102F40002E4801F06BFE02F00FFBFEF7BBFD1F20C9
:102F500002F004FD192002F001FD384602F0C8F825
:102F600041E0112816D018283DD102F0FDFA0121C8
:102F70002348FDF7A7FF234A012180B314461046DA
:102F8000FDF7A7FF022120462BE02868401C28609F
:102F90000A2828DB1C4801F07FFF69461A48009682
:102FA00002F024FB012239461248FEF7DCF91AE050
:102FB0000A221048FEF7D7F92C6014E001223946A6
:102FC0000C48FEF7D0F9114804600F4801F064FF87
:102FD0000F48009069460C4802F008FB03E0FFE749
:102FE0001046FDF778FF0020BDE8FC81792D000830
:102FF0001000002034010020000000209803002071
:10300000000C014000080140A00000201400002036
:10301000153000082DE9FC4100782E4C00252E4E7D
:10302000012820D02D4F02280FD018284ED1012181
:103030002B48FDF747FF2B4A012128B39046104645
:10304000FDF747FF022140461FE02068401C20603A
:103050000A283BDB244801F01FFF694622480097FD
:1030600002F0C4FA32E002224FF4FA511F48FEF790
:103070007AF92560356002F013F8122002F06EFC38
:10308000172002F06BFC21E01046FDF724FF3068AA
:10309000401C30604FF44876012807D102F064FAF2
:1030A000FEF7F4FC304602F023F80FE002280DD1C1
:1030B0000D4801F0F1FE69460B48009702F096FAC0
:1030C0000122314609482560FEF74DF90020BDE890
:1030D000FC8100001000002014000020A12800083E
:1030E000000C014000080140A00000203401002035
:1030F0001CB50078214A00244FF4FA5101281CD055
:10310000022816D00D2832D0182810D102F02CFA3F
:1031100001224FF448711A48FEF725F9194801F0C9
:10312000BBFE194800906946164802F05FFA00207D
:103130001CBD1068401C1060F9E7146002221048A2
:10314000FEF711F9FDF7AEFCFEF7BCFC1F2002F004
:1031500005FC252002F002FC142002F0FFFB2320D6
:1031600002F0FCFBFEF7AEFC08480460DFE71460E9
:1031700002220348FEF7F7F8D9E70000100000200C
:1031800034010020A0000020392E00081400002087
:103190007CB500781D4D4FF4487601280CD01C4CAE
:1031A000022823D018282ED102F0DEF90122314660
:1031B0001848FEF7D8F81EE002224FF4FA511548DD
:1031C000FEF7D1F80020286004211348FDF781FEA6
:1031D00002F0CAF9102002F0C1FB182002F0BEFB79
:1031E000FEF730FC304601F0B5FF0CE02868401CCB
:1031F00028600A2807DD094801F04EFE69460748A5
:10320000009402F0F3F900207CBD000010000020C3
:10321000A128000834010020000C0140A00000207B
:103220002DE9FC41007800252A4C2B4F4FF44878BB
:10323000012814D0294E02282AD0182847D102F09C
:1032400093F901213846FDF73DFE254A012168B377
:1032500017461046FDF73DFE0221384627E00222C0
:103260004FF4FA511F48FEF77EF8042138462560D6
:10327000FDF72FFE02F078F9102002F06FFB172007
:1032800002F06CFBFEF702FC404601F031FF1EE04D
:103290002068401C20600A2819DB134801F0FCFD5F
:1032A00069461148009602F0A1F90BE01046FDF7BF
:1032B00012FE0D4801F0F0FD69460B48009602F041
:1032C00095F92560012241460648FEF74CF800209A
:1032D000BDE8FC8110000020000C0140A12800087E
:1032E0000008014034010020A00000207CB50078D7
:1032F0000026204C012817D01F4D02282CD018285A
:1033000010D102F031F91D4801F0C6FD69461B4895
:10331000009502F06BF901224FF4487118482660BD
:10332000FEF721F800207CBD02224FF4FA51144828
:103330002660FEF718F802F017F901F0B1FE4FF41D
:103340007A64204602F004F901F0AAFE204602F059
:10335000FFF801F0A5FEE5E72068401C20600A2880
:10336000E0DB064801F098FD69460448009502F04C
:103370003DF9D7E710000020A1280008A000002098
:10338000340100207CB5007800241A4D4FF44876B3
:10339000022806D00D281CD0182829D102F0E4F804
:1033A00026E02868401C2860032802DAFDF77AFB33
:1033B0001EE0114801F070FD1048009069460E486B
:1033C00002F014F9012231460D482C60FDF7CBFFC5
:1033D0000EE0012231460A482C60FDF7C4FF064882
:1033E00001F05AFD074800906946034802F0FEF8D4
:1033F00000207CBD10000020A0000020ED3200085D
:1034000034010020913400082DE9FC4100781C4C67
:103410000025012827D01B4E4FF4487702280DD0F5
:1034200018281DD102F0A0F8174801F035FD6946B3
:103430001548009602F0DAF825600CE02068401C80
:1034400020600A280CDB104801F026FD69460E4872
:10345000009602F0CBF8012239460C48FDF783FFB5
:103460000020BDE8FC8102F07FF8FEF72BFB0D2069
:1034700002F074FA02224FF4FA512560EDE70000E1
:1034800010000020A1280008A00000203401002026
:103490002DE9FC47064600780024564FDFF8588196
:1034A000DFF858A1564D4FF4FA514FF448790528EA
:1034B0005FD013DC01281AD0022823D004280CD1B5
:1034C00001215046FDF707FD4E4C01212046FDF736
:1034D00000FD02212046FDF7FEFC87E00F2826D0E4
:1034E000112833D0182801D102F03EF87EE00222E4
:1034F00045482C60FDF737FF75210020FDF7DEFA07
:103500007C6073E02868401C28600A286EDD012278
:1035100049463D482C60FDF726FF3C4801F0BCFCC5
:10352000404600906946394802F060F85EE00421A8
:103530005046FDF7CEFC0122494633482C60FDF78A
:1035400012FF324801F0A8FC3148EAE702222E4877
:10355000FDF709FF7868401C7860032804DA7521BC
:103560000020FDF7ABFA41E004215046FDF7B1FC25
:10357000CDE77068132839D2DFE800F0381E1E1E30
:103580001E1E1E1E1E1E1E1E1E3838380A380A0039
:1035900004215046FDF79DFC1C4801F07DFC1D48B0
:1035A00000906946194802F021F801224946164860
:1035B0002C60FDF7D8FE19E01748007BA02804D046
:1035C00001F0D2FFFEF77EFA10E004215046FDF72D
:1035D00080FC0E4801F060FC1048009069460B48E2
:1035E00002F004F831460E4801F081FC0020BDE8ED
:1035F000FC8700003000002025360008000C014048
:10360000100000200008014034010020A00000202C
:10361000E5360008C920000898030020F13D0008A5
:10362000E40000207CB50078284D4FF4487601284E
:103630000CD0274C022839D0182844D101F094FF2F
:10364000012231462348FDF78EFE34E002224FF47A
:10365000FA512048FDF787FE00201F4C2860042106
:103660002046FDF736FC01212046FDF732FC012102
:103670002046FDF727FC194A012130B114461046B7
:10368000FDF727FC0221204600E01046FDF723FC51
:1036900001F06AFFFEF7D6F91F2002F05FF918204B
:1036A00002F05CF9304601F055FD0CE02868401C42
:1036B00028600A2807DD0A4801F0EEFB6946084841
:1036C000009401F093FF00207CBD0000100000205A
:1036D000A128000834010020000C0140000801402E
:1036E000A00000202DE9FC41007800252E4C4FF46D
:1036F0004877012816D02D4E022836D0162849D0FA
:10370000182844D101F030FF01212948FDF7DAFBE8
:10371000284A0121B8B314461046FDF7DAFB02210E
:10372000204632E002224FF4FA5123482560FDF78B
:103730001AFE01F019FFFEF7C5F91F2002F00EF97D
:10374000192002F00BF9212002F008F9384601F0A7
:10375000CFFC01F031FD01F099FBC0B1002001F078
:103760003FFF164801F05AFA11E02068401C206023
:103770000A280CDD124801F08FFB694610480096BC
:1037800001F034FF03E0FFE71046FDF7A4FB002043
:10379000BDE8FC81FEF7ACF80122394606482560F9
:1037A000FDF7E1FDE6E7000010000020A128000879
:1037B000000C014000080140340100209803002063
:1037C000A00000202DE9FF41044602A801F01AFEE6
:1037D00020788DF80800606803909DF808000025A7
:1037E0002D4C4FF4487701280DD002284CD02B4E99
:1037F00005281CD018284AD101F0B6FE284801F04F
:103800004BFB009628E001F041FB062804D3244836
:1038100001F042FB23481EE0384601F099FE2220C9
:1038200002F09CF802224FF4FA5125601BE001F0EF
:103830009BFE039811282AD2DFE800F029191919F4
:1038400019191919191919191929292909001448B7
:1038500001F022FB144800906946114801F0C6FEB1
:103860000122394625601148FDF77DFD0FE00C4827
:1038700001F012FB69460A48009601F0B7FE02A962
:103880000B4801F034FB02E02068401C206000205F
:1038900004B0BDE8F081000010000020F13D0008F8
:1038A000A0000020393D0008C92000083401002094
:1038B000E40000202DE9FF41044602A801F0A2FD2A
:1038C00020788DF80800606803909DF808000024B7
:1038D000344F354E354D4FF448780F2831D009DC40
:1038E00001280ED0022858D12868401C28600A28D8
:1038F00053DB44E0112836D018284ED101F034FEB5
:1039000038E02C604FF4FA54022221462848FDF793
:103910002AFD04213846FDF7DEFAFEF7D3F81F2012
:1039200002F01CF8252002F019F8142002F016F815
:10393000232002F013F8FEF7C5F8204601F008FE38
:103940002BE004213846FDF7C4FA0122414618480D
:103950002C60FDF708FD174801F09EFA164915483E
:1039600001F044FE19E0144914394868401C4860CD
:10397000032804DA00210846FDF7A0F80DE00D4801
:1039800001F08AFA69460B48009601F02FFE0122E9
:10399000414607482C60FDF7E6FC002004B0BDE876
:1039A000F0810000000C0140FD43000810000020E1
:1039B00034010020A00000204C0000207FB5044608
:1039C00002A801F01FFD20788DF8080060680390C0
:1039D0009DF808000025234C4FF44876012817D0A5
:1039E00002283BD0182810D101F0BEFD1E4801F07E
:1039F00053FA1E48009069461B4801F0F7FD01226A
:103A000031461B482560FDF7AEFC002004B070BDB8
:103A100002224FF4FA5116482560FDF7A4FC01F08C
:103A200087FD144801F0FAF801F09EFDFEF72EF82C
:103A30001F2001F093FF192001F090FF4FF4166052
:103A400001F086FD122001F089FF172001F086FFAA
:103A5000FEF71CF8304601F04BFBD6E72068401C0F
:103A60002060D2E710000020A0000020A12800085C
:103A700034010020980300202DE9FF41044602A8EC
:103A800001F0C0FC20788DF80800606803909DF874
:103A900008000024594D4FF4FA564FF44878012895
:103AA00016D0574F022830D0052834D0182827D1F7
:103AB00001F05AFD01215348FDF704FA524A012151
:103AC000F8B114461046FDF704FA0221204619E029
:103AD000022231464D482C60FDF745FC01F044FDC3
:103AE000FDF7D4FF1F2001F039FF192001F036FF48
:103AF000222001F033FF01F0D3FA404601F0F8FA3A
:103B000077E01046FDF7E7F973E02868401C28606D
:103B10001E286EDB0DE0039811286AD2DFE800F062
:103B200069181818181818181818181818696969D1
:103B30000900374801F0B0F969463548009701F0AF
:103B400055FD0122414631482C60FDF70CFC50E048
:103B5000314F0246B9682F4B481C5A54B8601028A0
:103B60003DDB2B4801F098F92C4800906946284825
:103B700001F03CFD0222314624482C60FDF7F3FBA6
:103B800001F010FD012817D0224801F0FDFC98B18A
:103B9000204801F0A9FC78B101F0E6FCFDF792FFA6
:103BA000102001F0DBFE172001F0D8FEFDF76EFFBC
:103BB000404601F09DFA0EE001F0D6FCFDF782FFD1
:103BC000102001F0CBFE182001F0C8FEFDF73AFFEF
:103BD000404601F0BFFA124801F020F809E0082839
:103BE00005D1FDF76FFF1E2001F0B8FE01E0FDF7E3
:103BF00069FF002004B0BDE8F08100001000002043
:103C0000A1280008000C01400008014034010020F8
:103C1000A0000020D807002038000020253C000824
:103C2000980300201FB5044602A801F0EBFB2078A2
:103C30008DF80800606803909DF80800104C022879
:103C400002D0182818D104E02068401C20600A28FF
:103C500012DB01F089FC0B4801F01EF90A480090C4
:103C60006946084801F0C2FC0020206001224FF4A0
:103C700048710648FDF777FB002004B010BD000036
:103C800010000020A0000020A1280008340100201E
:103C90007CB50078224C4FF4487605282DD017DCEF
:103CA000204D01281BD0022838D12868401C2860EC
:103CB0000A2833DB1C4801F0EFF869461A480094E3
:103CC00001F094FC012231461848FDF74CFB25E039
:103CD00016280FD0182821D101F046FC1EE001F073
:103CE0006BFA0D2001F03AFE002002224FF4FA5147
:103CF0002860E9E7FDF7FCFDDCE701210C48FDF752
:103D0000EAF80C4C01212046FDF7E3F80221204699
:103D1000FDF7E1F801F028FCFDF7D4FE00207CBDA2
:103D2000A128000810000020A0000020340100207D
:103D3000000C0140000801402DE9FC4100780025FD
:103D4000254C4FF44876012804D0022819D01828B1
:103D50003ED11BE002224FF4FA5120482560FDF7C6
:103D600002FB01F001FCFDF7ADFE152001F0F6FDB0
:103D70001C2001F0F3FDFDF765FE304601F0EAF985
:103D800026E02068401C20600A2821DB01F0ECFBC3
:103D900001211348FDF796F8124A012130B1174668
:103DA0001046FDF796F80221384600E01046FDF770
:103DB00092F80D4801F070F80C48009069460A48E6
:103DC00001F014FC0122314604482560FDF7CBFACE
:103DD0000020BDE8FC81000010000020340100201C
:103DE000000C014000080140A0000020A1280008AC
:103DF0002DE9FC4101780025404E414F44680129DE
:103E00000AD04FF4487802290FD0052922D018296A
:103E100070D101F0A9FB6DE002224FF4FA5139484C
:103E20003560FDF7A0FAFD6064E03068401C30604A
:103E30000A285FDD01F02AF801463878814204D073
:103E400001F0CEFB304800F0E9FE304801F024F8E4
:103E50002F4841E001F088FB132C4BD2DFE804F03F
:103E60004A1414141414141414141414144A4A4A3A
:103E70000A4A0A00254801F00FF8264800906946D2
:103E8000224801F0B3FB2DE0F868234A411C14548A
:103E9000F96008292CDB104601F004FB01281B48BF
:103EA00017D100F0F9FF1D4800906946174801F04E
:103EB0009DFB012241461348FDF755FA3D7000F085
:103EC000E5FF28B1002001F08BFB0F4800F0A6FEB3
:103ED00010E000F0E1FF1248009069460B4801F045
:103EE00085FB3560012241460648FDF73CFA01E0BA
:103EF000FDF7E8FD0020BDE8FC8100001000002077
:103F0000380000203401002098030020A000002089
:103F1000FD430008C9200008EA0700203D430008CF
:103F20005D4000087CB500780025164C4FF44876BB
:103F3000012804D002280DD0182821D10FE0022238
:103F40004FF4FA5110482560FDF70DFA304601F0A4
:103F5000FFFA15E02068401C20600A2810DB01F001
:103F600003FB0A4800F098FF09480090694607489B
:103F700001F03CFB0122314603482560FDF7F3F9CF
:103F800000207CBD1000002034010020A000002093
:103F9000A12800082DE9FF4100780024274E4FF4A6
:103FA000FA55012809D0022815D0182801D101F0AE
:103FB000DBFA002004B0BDE8F08102222946204847
:103FC0003460FDF7D0F91A208DF8000069461D48CD
:103FD00000F08DFFEDE730681B4F401C30600A2871
:103FE0000ADD02A91948029701F000FB01224FF4F3
:103FF00048711348FDF7B7F915480068C005D8D5D2
:1040000014480068FCF7A8FA134800F007FE0F48B0
:1040100000F042FF02A90D48029701F0E7FA0222E0
:10402000294607483460FDF79EF901F039F8284623
:1040300001F08EFAFDF72AFDBBE70000100000201A
:1040400034010020E4000020A1280008A000002086
:104050000C00002008000020980300202DE9FC41FE
:10406000007800243B4D4FF44876012813D00228F5
:1040700028D018286AD101F077FA01213648FCF7D8
:1040800021FF364A012138B317461046FCF721FFBD
:104090000221384621E002224FF4FA5130482C60C8
:1040A000FDF761F901F060FAFDF70CFD1F2001F04A
:1040B00055FC182001F052FCFDF7C4FC304601F01D
:1040C00049F843E02868401C28600A283EDB254860
:1040D00000F0E2FE244821E01046FCF7FCFE234FEE
:1040E000787828B900F0D2FE787000F0CFFE3870F2
:1040F0003878401CC0B238707870062814D300F0AD
:10410000C5FE01463878814204D001F069FA1848AA
:1041100000F084FD134800F0BFFE16480090694689
:10412000104801F063FA0BE00E4800F0B5FE1248AB
:10413000009069460B4801F059FA222001F00EFC6C
:104140000122314606482C60FDF70DF90020BDE83C
:10415000FC81000010000020000C0140000801401C
:1041600034010020A0000020FD430008380000209A
:1041700098030020A1280008F13D00082DE9FC412A
:10418000007800253B4E3C4C4FF448770D284AD030
:104190001DDC012824D038490968491C02285AD05E
:1041A00008281AD1216002290EDD344800F074FE7F
:1041B000334800906946314801F018FA0122394627
:1041C00030482560FDF7CFF8FCF76CFC05E01028BF
:1041D00032D0182801D101F0C7F90020BDE8FC81D8
:1041E00001F0C2F9FDF76EFC4FF4FA5001F0B0F99E
:1041F00008224FF47A5123482560FDF7B4F801F006
:1042000097F9214800F00AFDFF21084600F082FCE2
:10421000A02001F0DFF91C4800F000FD0421304629
:10422000FCF759FED9E70222394616482560FDF70A
:104230009AF8FCF7F2FBD0E704213046FCF749FE80
:104240000E4800F029FE1148009069460B4801F025
:10425000CDF9256008E021600A29BEDD0C480090F8
:104260006946064801F0C2F9012239460548FDF7C2
:104270007AF8B2E7000C014010000020A0000020F6
:10428000ED32000834010020980300209542000818
:10429000A12800087CB50078224D4FF4487401280D
:1042A00013D0022827D0182839D101F05DF9012157
:1042B0001D48FCF707FE1D4A012168B3144610464D
:1042C000FCF707FE0221204627E001F04DF91D20F2
:1042D00001F044FB00F0E4FE4FF4FA56304601F0E2
:1042E00037F900F0DDFE204600F002FF0020022238
:1042F000314628600CE02868401C28600A280EDD42
:104300000B48009069460B4801F070F901222146E4
:104310000948FDF728F802E01046FCF7DCFD002014
:104320007CBD000010000020000C0140000801408E
:10433000A1280008A0000020340100201CB500784E
:104340004FF44874012813D0162833D0182846D1CA
:1043500001F00AF901212348FCF7B4FD224A0121AA
:10436000C8B314461046FCF7B4FD0221204634E0E1
:1043700002224FF4FA511D48FCF7F5FF01F0F4F862
:10438000FDF7A0FB1F2001F0E9FA192001F0E6FA81
:10439000212001F0E3FA204600F0AAFE00F00CFF15
:1043A00000F074FDD8B1002001F01AF9104800F0B7
:1043B00035FC14E0FDF79CFA0E4800F06DFD0E4848
:1043C000009069460B4801F011F901222146074887
:1043D000FCF7C9FF03E0FFE71046FCF77CFD002077
:1043E0001CBD0000000C0140000801403401002009
:1043F00098030020A0000020253F00082DE9FC4183
:1044000000780025254C4FF44876012804D0022876
:1044100019D018283ED11BE002224FF4FA5120484F
:104420002560FCF7A0FF01F09FF8FDF74BFB1F2074
:1044300001F094FA182001F091FAFDF703FB3046E1
:1044400000F088FE26E02068401C20600A2821DB5E
:1044500001F08AF801211348FCF734FD124A0121CA
:1044600030B117461046FCF734FD0221384600E013
:104470001046FCF730FD0D4800F00EFD0C48009092
:1044800069460A4801F0B2F8012231460448256025
:10449000FCF769FF0020BDE8FC810000100000204F
:1044A00034010020000C014000080140A000002061
:1044B000A12800082DE9FC41007800241B4D0128AB
:1044C00021D01B4E4FF44877022808D016282AD056
:1044D000182825D101F048F800F06EFE20E0286889
:1044E000401C28600A281BDD124800F0D5FC6946F4
:1044F0001048009601F07AF8012239460E482C60E7
:10450000FCF731FF0CE002224FF4FA510A482C600C
:10451000FCF729FFFDF7D6FA4FF4C86001F018F850
:104520000020BDE8FC81FDF7E3F9DDE71000002085
:10453000A1280008A0000020340100202DE9F0414E
:1045400007463C4888B01EC801AE86E81E00387891
:104550000024394D01280BD04FF44878022850D060
:10456000052819D0182860D12C6000F0FDFF5CE010
:1045700000F0FAFF00F094FD4FF47A66304600F048
:10458000E7FF00F08DFD304600F0E2FF00F088FD0F
:10459000022271002C6045E000F0E6FF78680C28EC
:1045A00043D2DFE800F04217062B211C2B2B2B26D1
:1045B0002B2B0024305D401CC0B201F0CFF9305DE0
:1045C0008DF8140005A91D48FDF7ADFA641C0C2CEC
:1045D000F0DB2AE01A4800F05FFC1A481AE018489D
:1045E00000F05AFC184815E0154800F055FC174833
:1045F00010E0134800F050FC15480BE0FDF762FA9C
:1046000013E02868401C28603C280EDB0C4800F0B2
:1046100043FC1048069006A9094800F0E7FF012274
:1046200041462C600C48FCF79EFE002008B0BDE817
:10463000F0810000BC590008100000205801002043
:10464000A00000205D46000899470008C9490008FD
:10465000B5480008A128000834010020FEB5064630
:1046600000780024474D4FF44877012809D00228EC
:1046700071D005280FD0182802D12C6000F074FFEB
:104680007DE0FDF71FFA384600F062FF02224FF48A
:10469000FA512C6070E000F067FFFDF713FA7068C4
:1046A00013286CD2DFE800F06B19144B231E46412F
:1046B000322D373C286B6B6B0F6B0A00202001F00A
:1046C0004DF920203FE000F04FFF00F0E9FC56E0FC
:1046D000022001F043F9022035E0032001F03EF909
:1046E000032030E0042001F039F904202BE00520FC
:1046F00001F034F9052026E0062001F02FF906200C
:1047000021E0072001F02AF907201CE0082001F031
:1047100025F9082017E0092001F020F9092012E00E
:104720000A2001F01BF90A200DE00B2001F016F918
:104730000B2008E0012001F011F9012003E00C201A
:1047400001F00CF90C208DF8000069460E48FDF7C9
:10475000EAF914E0FFE72868401C28600A280EDB0D
:104760000A4800F099FB0A48019001A9074800F0A7
:104770003DFF012239462C600648FCF7F4FD00207D
:10478000FEBD00001000002058010020A000002005
:104790003D450008340100202DE9FE43074600781E
:1047A00000253D4E4FF44874012814D002285CD0F7
:1047B0003A4C4FF47A6805281AD0182869D1356028
:1047C00000F0D2FE606800280DDD401E60604046AB
:1047D00000F078FC5DE0204600F08AFC02224FF4F5
:1047E000FA51356052E001212D48FCF774FB50E08E
:1047F00000F0BAFE786813284BD2DFE800F04A1CBC
:104800001A30201E2E2C2624282A224A4A4A154ACB
:104810000A00202001F0A2F820208DF8000069464F
:104820002048FDF780F934E000F09EFE00F038FCEF
:104830002FE0012014E0022012E0032010E0042009
:104840000EE005200CE006200AE0072008E0082022
:1048500006E0092004E00B2002E00A2000E00C2022
:104860006060404600F074FE13E03068401C306029
:104870000A280EDB0C4800F00FFB0C48019001A940
:10488000094800F0B3FE0122214635600848FCF7D4
:104890006AFD0020BDE8FE831000002070000020AB
:1048A0000008014058010020A00000203D450008FC
:1048B000340100202DE9FC470646007800243C4DD9
:1048C0004FF4487801280AD03A4F022837D00528FB
:1048D00015D0182869D100F047FE2C6065E000F083
:1048E00043FEFDF7EFF84646404600F033FC304605
:1048F00000F0FEFB02224FF4FA512C6052E000F06F
:1049000033FEFDF7DFF8706813284ED2DFE800F0C1
:104910004D0A0A0A0A0A0A0A0A0A0A0A0A4D4D4DEB
:104920000A0A0A00244800F0B7FA694622480097AC
:1049300000F05CFE02224FF47A612C6032E02868BD
:10494000DFF87890401C2860C0071D4E4FF0010131
:10495000484607D0FCF7BFFA01213046FCF7B9FA08
:10496000022102E0FCF7B5FA01213046FCF7B3FA68
:1049700028680A2819DB104800F08EFA69460E48AC
:10498000009700F033FE01214846FCF7A4FA01210C
:104990003046FCF79EFA02213046FCF79CFA0122D1
:1049A00041462C600748FCF7DEFC0020BDE8FC8790
:1049B000100000203D450008A0000020000C014030
:1049C00000080140340100202DE9FC5F804600789A
:1049D0000024344E344D4FF001094FF4FA5A0128A7
:1049E0001AD0324F4FF4487B022844D005281FD0FC
:1049F000182853D100F0B8FD2C603078401CC0B2AC
:104A0000307027283CD8401CC0B200F0A7FF4FF4FC
:104A10007A6000F09DFD41E000F0A6FDFDF752F840
:104A20003470484600F09AFF022251462C6032E072
:104A300000F09AFDFDF746F8D8F8040013282DD2AF
:104A4000DFE800F02C0A0A0A0A0A0A1E0A0A0A0A01
:104A50000A2C2C2C0A0A0A00307826281ED900F0CD
:104A600083FDFDF72FF8504600F072FD3470484684
:104A700000F074FF12E02868401C28600A280DDB53
:104A80000B4800F009FA69460948009700F0AEFDAE
:104A9000012259462C600748FCF765FC0020BDE860
:104AA000FC9F000070000020100000203D45000821
:104AB000A0000020340100201CB54FF480710C4888
:104AC000FCF7F9F90B4C012820680DD1400606D4FB
:104AD00007208DF800006946074800F008FA2068B2
:104AE00040F0400020601CBD20F04000FAE70000CC
:104AF000000801400C000020E400002004490246A8
:104B0000114491F882100120A52900D1002070479E
:104B10009803002010B50022752308B9012207E090
:104B2000012802D11522452302E0022800D14622A5
:104B3000044803E0841884F88210521C9A42F9DD7C
:104B400010BD00009803002010B504220649074854
:104B5000FBF72AFB20B9054890F88200FF2801D115
:104B6000012010BD002010BDA859000898030020A6
:104B7000024A104480F88210704700009803002019
:104B800038B504463A208DF8000069461C48FCF709
:104B9000CAFFFF258DF8005069461948FCF7C3FF8E
:104BA0008DF8005069461648FCF7BDFF8DF800509F
:104BB00069461348FCF7B7FF20788DF80000694676
:104BC0000F48FCF7B0FF60788DF8000069460C488C
:104BD000FCF7A9FFA0788DF8000069460848FCF7AB
:104BE000A2FF207861780144A07800F237300844B1
:104BF0008DF8000069460248FCF795FF38BD0000BB
:104C0000E40100200020044AFF214FF48063115486
:104C1000401C9842FBDB7047980300202DE9F041CF
:104C20000546FBF793FE3520FBF712FE0D4C2046A0
:104C3000FBF714FE042803D04FF0FF30BDE8F081ED
:104C4000084E094F7642A01920F00300295820464B
:104C5000FBF74EFE241DBC42F5D3FBF735FE0020CA
:104C6000ECE7000000FC0108000002082DE9FE4FFF
:104C70000178DFF8DCA1DFF8DC81774D774F002485
:104C80004FF4FA594FF400764FF4487B052974D05D
:104C900026DC01295ED0DFF8C891022929D0042939
:104CA00026D131463846FCF716F901213846FCF783
:104CB00012F901214846FCF70CF902214846FCF79D
:104CC0000AF90122594667482C60FCF74CFBFFF7B4
:104CD0003BFF002852D0644800F0DEF8404688E0F0
:104CE000072954D0122939D01629D9D1FCF700FE52
:104CF000A4E02868401C28600A2823DB314650467F
:104D0000FCF7E7F801213846FCF7E3F804213846C0
:104D1000FCF7DFF801214C464846FCF7DCF802219D
:104D20002046FCF7D8F831463846FCF7D2F8314631
:104D30003846FCF7C0F80028F5D102225946494808
:104D4000FCF711FB28688DF8000069464748FCF71E
:104D5000EAFE73E0022249462C606CE03146384698
:104D6000FCF7B9F8404800F097F84148019001A9D4
:104D70003D4800F03BFC2C605BE022E03D48007BBE
:104D8000A02804D0384800F087F83B4831E00122E1
:104D9000594634482C60FCF7E6FAFFF7D5FE0028A8
:104DA0003146384602D0FCF796F894E7FCF793F8C2
:104DB00004213846FCF78FF82B4800F06DF82F4897
:104DC00017E04068DFF8B880102818D0112826D0E6
:104DD000122833D131463846FCF77DF80122594676
:104DE0002048FCF7C0FA2048C8F8004000F054F80A
:104DF0002448019001A91C4800F0F8FB1EE0314650
:104E00003846FCF768F8012259461648FCF7ABFA19
:104E10001548C8F8004000F03FF81B48E9E7FFF7E5
:104E200093FE0028314638460BD0FCF754F800F0CA
:104E3000C3F9012259460B48FCF795FA0020BDE85A
:104E4000FE8FFCF748F831465046FCF744F881E7FE
:104E500000100140913C000810000020000C0140AF
:104E60000008014034010020A0000020580100206B
:104E7000B544000898030020C53700089D2A0008A3
:104E800014000020951B0008C92000080148007C80
:104E90007047000098030020002101607047002146
:104EA00001604160704730B5D0E900435A1CA2420E
:104EB00007D0D51702EB557525F00705521BA24206
:104EC00001D1002030BD0A7800EBC3031A74426898
:104ED000496800EBC20251614168491CCA1701EBE5
:104EE000527222F00702891A4160012030BD70B56C
:104EF00004460D46FBF7F6FF29462046FFF7D3FF91
:104F00000446FBF7FFFF204670BD00002DE9FC477B
:104F10005C4C5D4F2068DFF874915D4D4FF4207854
:104F200000064FF0050610D420214846FBF7C3FFCA
:104F30000128206803D1400428D4042020E0410443
:104F400024D540F08000206020E0787839788842CD
:104F50001CD05049BA78FF28895C01910ED028688E
:104F6000404513D18DF8006069464B48FFF7BFFFFD
:104F70004FF4487028607878387007E03870062061
:104F80008DF8000069464448FFF7B1FF2021CA466A
:104F90004846FBF790FF002101282068DFF8FC90CD
:104FA0004FF4F0724FEA404311D1002B0CDA28681D
:104FB00090421AD14846C5F80080FBF779FF00F00F
:104FC0000F007870B87010E040F480400BE0002BC8
:104FD00007DB2868904208D1FF20C5F80080787070
:104FE00003E020F480402060296020214D4648469F
:104FF000FBF761FF012820683AD1C00607D41020D2
:1050000001908DF8006069462348FFF770FF206823
:1050100040F0100020604FF480612846FBF74BFF02
:105020000128206827D1800607D4112001908DF82F
:10503000006069461848FFF75AFF206840F02000DA
:10504000206080215046FBF736FF0128206815D1EB
:10505000C00407D4122001908DF8006069460E4804
:10506000FFF745FF206840F480502060BDE8FC87D2
:1050700020F01000CEE720F02000E1E720F480507F
:10508000F3E700000C000020200000200008014091
:1050900090000020AC590008E400002000100140FE
:1050A0001CB5F9208DF80400044800900F208DF8FD
:1050B000050069460248FCF72BFC1CBD8038010046
:1050C000040300201CB50446FD208DF80400694649
:1050D00006480094FCF71CFCFC208DF8040069468F
:1050E00002480094FCF714FC1CBD000004030020DF
:1050F0007CB50446FD2600908DF80460694614488E
:10510000FCF706FCFC258DF8045069461048009415
:10511000FCF7FEFB8DF8046069460D480094FCF72F
:10512000F7FB8DF80450694609480094FCF7F0FB42
:105130008DF80460694606480094FCF7E9FB8DF899
:105140000450694602480094FCF7E2FB7CBD000075
:10515000040300207CB50446FB2600908DF8046013
:1051600069461448FCF7D4FBFA258DF804506946CB
:1051700010480094FCF7CCFB8DF8046069460D489C
:105180000094FCF7C5FB8DF804506946094800946B
:10519000FCF7BEFB8DF80460694606480094FCF7F6
:1051A000B7FB8DF80450694602480094FCF7B0FB49
:1051B0007CBD0000040300201CB5FF208DF8040016
:1051C0004FF47A6469460B480094FCF7A1FBF72082
:1051D0008DF8040049F64040009069460548FCF708
:1051E00097FBFE208DF80400694602480094FCF706
:1051F0008FFB1CBD700200202DE9FF47FBF770FFFD
:10520000FBF7B4FEFBF76AFD724C4FF400752946BC
:105210002046FBF75EFE29462046FBF74CFE0028A1
:10522000F5D101212046FBF754FE04212046FBF76F
:1052300050FE694C01212046FBF74DFE022120461D
:10524000FBF749FE10212046FBF745FE4021204692
:10525000FBF741FE614C40212046FBF73AFE8021DE
:105260002046FBF736FE29462046FBF732FEFCF7C8
:1052700065FAFCF753F9FBF761FAFBF77DF8584E36
:10528000002575603560FFF7BDFC574C0422554979
:105290002046FAF789FF48B9544900BF54F8202046
:1052A00041F82020401CFF28F8DD08E04F48FFF7B8
:1052B000B5FC4FF480624B494C48FAF79CFF4C48D0
:1052C000FCF73FFC4A488C30FCF73BFC484916236E
:1052D0001839152201F59870FCF743FB444918234F
:1052E0000C39172201F5DC70FCF73BFB4048B8385D
:1052F000FFF7D2FD3E487438FFF7D1FD3C48DFF898
:10530000F4806946B838CDF8008000F06FF9384F66
:105310000024243F04EB440007EB8000FBF727F94F
:10532000641C032CF6DB32484FF4FA540222214667
:105330002438FCF714F801208DF808002C4802A945
:105340007438FFF7B0FDFBF7DDFD00F01BFBDFF865
:10535000A890DFF8A8A0474600F012FBFFF7D6FDA3
:10536000FFF7AAFB00F054F800F0A6FA20494846DF
:10537000FBF70CF91E4950468C31FBF707F9204822
:10538000FCF7A6FA19489438FCF7A2FA184802A9C3
:10539000743800F079F80028DED002A800F0E4F9B3
:1053A0000128D9D012486946B83800F031F968B9F7
:1053B0000F486946B838009700F018F90C480222E7
:1053C000214624387560FBF7CEFFC5E7009902A897
:1053D0008847C1E7000C014000080140001001406F
:1053E0000C000020A859000800FC010898030020C8
:1053F000580100206D4C0008003801400044004076
:1054000070020020002802D00021017001207047A6
:105410001CB54FF400610C48FBF74DFD0B4C012807
:1054200020680DD1000506D412208DF800006946D1
:105430000748FFF75CFD206840F4006020601CBD59
:1054400020F40060FAE70000001001400C0000208A
:10545000E4000020D0E90023934201D100207047EE
:1054600000EBC202127C0A70026800EBC2025269B1
:105470004A600168491CCA1701EB527222F0070208
:10548000891A01600120704770B504460D46FBF78C
:1054900029FD29462046FFF7DDFF0446FBF732FDD4
:1054A000204670BD70B50F4C002200BF02EB820396
:1054B00004EB4301897FA5290ED1002101EB4305AF
:1054C0002544ED7F465CB54202D1491C0829F5DB35
:1054D000082901D1012070BD521C082AE6DB0020FA
:1054E00070BD00009803002030B5104B002100BFB4
:1054F00001EB810203EB4204A47FA52C10D001EB49
:105500008101A52403EB41018C77002101EB4205C9
:10551000445C1D44491CEC770829F7DB012030BDB1
:10552000491C0829E4DB002030BD0000980300205E
:105530000020064AFF2100BF00EB800302EB43037B
:10554000401C99770828F7DB01207047980300205A
:105550001CB5F7218DF80410009069460148FCF74E
:10556000D7F91CBD0403002010B5182317220449E5
:105570000448FCF7F6F9BDE81040024800F0BAB85C
:105580004C0100200403002000214318425C1B7AD8
:105590009A4201D000207047491C0829F5DB012000
:1055A000704700000749002000EB800201EB420237
:1055B000927FA52A01D000207047401C0828F3DB09
:1055C00001207047980300200148007A70470000CE
:1055D00098030020014908727047000098030020DA
:1055E0000149087470470000980300200268072AE8
:1055F00001D300207047521C026000EBC2020B680E
:1056000053600268496800EBC20081600120704766
:105610000268002A01DD082A01DB0020704700EB48
:10562000C20252680A60026800EBC20080684860EB
:10563000012070472DE9F04104460D46027B0968C0
:105640000069FBF790FE29798022F5394023DFF8C5
:105650009CC02748202610270B2944D2DFE801F000
:10566000322C38433C29221F170F0600A26040212C
:1056700064466046FBF72FFC8021204624E0A260B0
:10568000402164466046FBF724FC802105E0A360CE
:1056900001210446FBF71DFC022120460EE00121FA
:1056A000A3600BE0A66002210446FBF712FC012177
:1056B000F3E70221A66001E01021A760BDE8F041F8
:1056C000FBF709BC1021A760BDE8F041FBF701BC66
:1056D0000820A060BDE8F0810420A0606879BDE8E2
:1056E000F04100F029B90020F3E70000001001406C
:1056F0000008014010B504460069FAF73CFFA168B4
:10570000080607D5154C40212046FBF7E2FB802117
:1057100020460EE012484A0601D5012102E08A0621
:1057200004D50221BDE81040FBF7D5BBCA0604D55D
:105730001021BDE81040FBF7CCBB08070CD448078C
:105740000AD502210748FBF7B6FB012804D1BDE8C2
:105750001040002000F0F0B810BD00000010014023
:1057600000080140000C0140F0B50178474F0124CA
:1057700000251439464E386887B0072971D2DFE812
:1057800001F039048106810E0A00424800E04248D7
:10579000FCF783F877E020F48070756028E0C0059E
:1057A00071D43E48FAF755FE71683D4B01F00F0287
:1057B00043F82200491C7160080764D13868102141
:1057C00040F4807038601846FCF709F90B22042178
:1057D00033487560FCF7EEF8324D2860FAF7B6FEF4
:1057E00031490860296881424DDA386840F4007018
:1057F000386048E001A92D48FBF726F910F0FF0FAB
:1058000041D001A8FBF747F910F0FF014FF0110557
:105810000DD002291CD0032924D0042933D12449D6
:1058200001A8FBF763F9C0B2AA2827D007E001A8B6
:10583000FBF7A2F9C0B2AA2801D10D201FE0AB28C6
:1058400021D08DF8145005A91A48FFF750FB1AE033
:1058500004A901A8FBF7A4F9C0B2AA28EFD10E2031
:105860000DE00FE0124901A8FBF7E7F9C0B2AA2842
:10587000E5D10F48007806900F2000E010208DF849
:105880001400E0E70024204607B0F0BD0C00002023
:1058900020000020700200200403002000240140AA
:1058A00098070020080000200400002000080020C5
:1058B00000000020E40000207CB51A480068B0F524
:1058C000487F2EDB02211848FBF7F5FA0024184E1A
:1058D0000028164DF06815D140F00100F0602868EE
:1058E00080041ED4B068401CB060C82819DB1720A3
:1058F0008DF8000069460F48FFF7F9FA286840F470
:1059000000500CE040F00200F0602868810408D5E7
:10591000B168491CB160022903DB20F40050286003
:10592000B4607CBD88000020000C01400C00002009
:1059300020000020E400002010B50446FBF7D2FA56
:105940000448C470044900200860BDE81040FBF71B
:10595000D9BA000020000020840000201CB5F921E5
:105960008DF80410044900918DF80500694603483C
:10597000FBF7CEFF1CBD00008038010004030020AF
:10598000FBF7D8BA10B545F25550FBF7E7FA0320FC
:10599000FBF7D8FA40F25D10FBF7DAFAFBF7CAFA28
:1059A000BDE81040FBF7BEBA485541520001020362
:1059B0000405060708090A0B0C0D0E0F020001046E
:1059C00000090004010805080002040608000000A0
:1059D0000001020304010203040607080900000095
:1059E000005A000800000020A00000002801000864
:1059F000A05A0008A0000020500A0000440100083E
:105A0000FFFF000000000000000000000000000098
:105A10000000000000000000000000000000000086
:105A2000FFFFFF0000000000000000000000000079
:105A30000000000000000000000000000000000066
:105A40000000000000000000000000000000000056
:105A5000000000001014160C021214160B02121390
:105A600014160B0C1115160C031215160B0300005F
:105A70000000000000000000B80B00000000000063
:105A800090010000BE0000000000000000000000C7
:105A900040060000000000000000000000000000C0
:04000005080000ED02
:00000001FF
